:020000041000EA
:4000000000400208230100100D00000085010010000000000000000000000000000000000000000000000000000000008101001000000000000000008101001081010010E9
:400040008101001081010010810100108101001081010010810100108101001081010010810100108101001081010010810100108101001081010010810100108101001060
:400080008101001081010010810100108101001081010010810100108101001081010010810100108101001081010010810100108101001081010010810100108101001020
:4000C00010B5064C2378002B07D1054B002B02D0044800E000BF0123237010BD3C0600080000000030300010084B10B5002B03D00749084800E000BF07480368002B00D1CA
:4001000010BD064B002BFBD09847F9E7000000004006000830300010E8000008000000007047FFF7FDFF72B60F4C104DAC4209DA21686268A368043B02DBC858D050FAE749
:400140000C34F3E70A490B4A0020521A02DD043A8850FCDC084809490860BFF34F8F00F005F900F01DF8FEE7343000104C3000103C060008140800080000000808ED00E0A7
:40018000FEE7FEE700B504207146084202D0EFF3098001E0EFF30880043001F0DDFAFEE710B562B6014800F067F9FEE70000081010B5002001F04CF810BDC04670B5624902
:4001C000E0239B00CB580F2213401A00D0329200525807210A40032A05D0042A06D0002A12D15A4814E05A4A106811E01A00C0329200554952581F210A40112A06D0132A7C
:4002000004D0FA20C00103E0524801E080200002002B36D14C4BB222D2009A5801211140B125ED005A59120F032422405B591B0F1C4207D0444C63591B0F03242340012BDC
:4002400002D102E0012300E00023002B01D0002901D1032A4BD13C4BB022D2009D58AD03AD0B3D495958C904C90C9C58240E01231C40013401F0E4FD6843210001F0E0FDBA
:4002800035E0012B33D1304BC822D2009A5801251540C024E4001A59120F03210A401B591B0F194207D028490B591B0F03210B40012B02D102E0012300E00023002B01D049
:4002C000002D01D1032A12D11F4DC022D200AB587F210B40A958090A1F263140AC58240C3440584301F0ACFD210001F0A9FDE0239B00154AD3581B0903221340D840144C46
:400300006060164B1D692D0AFC32154001351969090E013101F094FDA060290001F090FD0500E06020610E4BC0180E4901F088FD20750D4BE818FA21890001F081FDA0616D
:40034000C003E06170BDC0460000264000127A00C000000800366E0184050000000021403F420F0040420F00E703000010B5284801F060FD274CB022D200A3585B005B089F
:40038000A350E0218900635830208343635080235B04A350204A214BE250A02292010433E250FF221E4BE25001F032FDC0225200A35801218B43A35000F042FAFFF7FEFE75
:4003C000B0235B055B78002B04D0B0235B055B78DBB200E02123212B03D1124B0022DA605A60114C22008021042000F0D7FC2000103000F06BFD0D4B1A685123D35C002B47
:4004000002D00B4800F0D8FD00F0A0FB10BDC046782F00100000264001000200840500008C050000E00023405806000810080008B81F00108023024AD3580320184070473E
:400440000000214010B501F018FA084980228C58074B2340074C23438B508823034AD358DB06FAD501F00DFA10BDC04600002140FCFF00000100FA0570B50500830504D0B3
:40048000E821FF310F4801F039F901F0F6F90400FFF7D0FF032801D1FFF7D4FF0A4AB0239B00D55080215058084B03400848034353508823044AD358DB06FAD5200001F036
:4004C000E0F970BDEC1F001000002140FCFF00000300FA05FEE7C046F0B50025002711E0BB00C658F3B2FF22964308E06A008A181478A419527822700135013BDBB2002B75
:40050000F4D10137052FEBD9F0BDC04680221206054B1A602B23054A1360054A1360054A054B1A607047C04600001D4100031D4144031D4101001180000E1F4110B50A00B4
:40054000002101F012FD10BD10B501F005FD10BD30B587B0A649A022D2008B58032083438B50A44A116808688823CB58C3181868A149084018601368186884241B59C01829
:4005800003681B021B0A80256D042B430360106805680359EB1818680140196013683E229A5C002A06D09248E02189004258753CA24342503E229A5C002A06D08C48E02107
:4005C000890042583024A24342503E229B5C002B07D08749E02292008B588020000603438B500021012000F065FE0021022000F061FE0021032000F05DFE0021042000F0BB
:4006000059FE0021002000F055FE01A87B4903000A0032CA32C312CA12C300F079FE002802D00420FFF756FF7149754A8B588020000603438B50734800F026FF002802D006
:400640000420FFF747FF6A4C6F4BE1586F4A0A40E250E1586E4A0A40E250E25880252D062A43E250043BE1586A4A0A40E250E158694A0A40802189010A43E250E2588021BB
:4006800009020A43E250654A1168654B0B40802149000B431360002001F030FB614BE2581543E550E158012291430A43E2506421002001F069F84F4B1B683F229A5C052AEA
:4006C0000AD97122985C703A82401100032282400A405549986842509A6876215B5AD2181168524B0B4052490B431360414B1B6873229A5C0324210091400A007021585CBB
:400700000231595C8840104371229A5C01219140944022000A400243802109060A438021C900986842509A6852583F229A5C132A03D900213F4A986881509A6874215B5AD9
:40074000D21811682C4B0B40802149000B431360284B1B687322995C703A8A40110070229A5C7220185C82400A43802109060A438021C900986842509A6852583F229A5C0B
:40078000392A06D970229A5C01210A402A49986842509A6874215B5AD2185168164B0B40C42189010B435360124B1A687323D35C032199407023D35C7220105C1C008440B2
:4007C0002143012003400B43802109060B438021C9009068435093685B583F23D35C092B03D992680021154BD15007B030BDC0460000264010080008FF00FFFF04200010A4
:40080000087F0000400D030004050000FEFCFFFFFFFF00FFFFF0FFFFFF8FFFFF00002740FFFCFFFF0C050000140C0000FF0000FF00B101004C0C0000E40C0000240C0000B1
:4008400070B58AB09621002000F09EFF00F074FF002814D100F060FFC0235B00524AD358DB0705D41100514A8B585B005B088B504D494E4A8B588020000603438B50012015
:4008800001F0D4F94A4A516C4A4B0B40E82189010B435364536C1B0AFF2213403A2B07D1434A516C444B0B40E82189010B435364002300224149424801F03EFA0123002298
:4008C0004049322001F038FA012300228021C905322001F031FAFFF73BFE3B4A3B4B1A6000240CE0620012195300394AD318198B9A8AD88A00041043FFF720FE01340A2CC5
:40090000F0D900240AE0620012199300304AD3181A6ED96D986DFFF717FE0134122CF2D92C4D281D2C493C31FFF7D6FD2B4A1368832149000B43136001AC22002B001C33EF
:4009400043CB43C243CB43C243CB43C22100244800F004F922002B00403343CB43C243CB43C243CB43C221001E4800F0F7F822002B00643323CB23C223CB23C223CB23C208
:400980002100194800F0EAF824220021200001F0ECFA2B2301932100144800F0DFF8FFF7B5FD0AB070BDC046000026400C05000000002740FF00FFFFFFC5FFDF070E0040F8
:4009C000150E0000010000400300FA05F00121400420001084210010042100100079344080023240000332408004324000053240214B984230D00ED8402831D004D80028C5
:400A00001FD010282AD031E080282BD080235B00984229D02AE0194B984229D007D8A0231B0698420DD0164B984212D01EE0154B98420AD0144B984209D0144B984215D1F5
:400A400001E0002016E0124814E0124812E0124810E0A020C0030DE007480BE00F4809E00F4807E00F4805E0034803E00E4801E0A420C0037047C04606005200010000F045
:400A8000090000A0040000F0050000F0030000F0010052000200520003005200010050000200500005005200FF00520070B5124B1A683123D35C002B04D1C421FF310F4877
:400AC00000F01CFE0C4B1D682C00B423EB582A6A944663441B68002B0BDB094B1868FFF787FF6B6801229A6063689B68002BFBD100E0044870BDC04610080008B02B0010B2
:400B0000E80700080200500010B50D4B1861002805D002230370FD33437000234380094B1B6850229A5C002A08D051229B5C002B04D04F3A0449002000F0F8FA10BDC04623
:400B4000E8070008100800086101000810B502481430FFF7D9FF10BDE807000870B505000C0000285DD000295DD0FF230A689A4303D099212D4800F0C1FDFF2322699A4383
:400B800003D09A21294800F0B9FDA3685B0D03D09B21264800F0B2FD63685B0A03D09C21224800F0ABFDE3695B0F03D09D211F4800F0A4FD236A5B0F03D09E211B4800F0A4
:400BC0009DFD1B4A11688B69EB1ADB0949691B01CB18216829607D211068415C6918E06808607E211068415C6918206908607F211068415C6918606908607C211068415CBA
:400C00006918A06808606168A961116880228A5CAD18A2692A60E2691A60226A5A60002002E0044800E0034870BDC046F02B00101008000801005A0070B504000D000A4BAD
:400C40001A68B423D3581B181B68002B0ADA0B0C03D00649064800F051FD2D042D0C6560002000E0034870BD10080008D5020000702C001001008A0070B505000C000368F0
:400C8000002B01DA002300E0084B002B0BD1EA60230C03D00649074800F030FD2404240CAC60002000E0014870BDC04601008A00BB020000702C001070B505000C1E03D1CE
:400CC0009921084800F01AFD074B1A68B423D3585B191B68002B03DAEB682360002000E0024870BDB02C00101008000801008A0070B504000D00234B1A683123D35C8342BC
:400D000036D9002936D00B68DB0635D13123D35C984204D3C421FF311B4800F0EFFC194B1B681A6AB0215B5A5C431419174E34602B68DA080021686801F017F90021200036
:400D4000FFF77AFF3468002D03D111490E4800F0D5FC2A0000212000FFF78EFF00280DD10A4B18680021FFF767FF002808D108E0084806E0074804E0064802E0064800E000
:400D8000054870BD10080008702C0010000800089303000003018A0001018A0010B50400002A17D1002915D1124B1A683123D35C984204D3C421FF310F4800F09FFC0D4BE1
:400DC0001B681A6AB0215B5A5C4314190B4B1C6000200EE0002A09D0002909D0074B59609A60191D2000FFF783FF02E0044800E0034810BD10080008702C001000080008E0
:400E000003018A00F0B583B00D001C4B1B68DC68236883422DD947097B01C01A012383401E00002903D100F028FD019001E000230193124B18680368002B01DA002300E084
:400E40000F4B002B0ED16368BF00DF193B68334203D0B3433B60002400E00A4C0021FFF7EBFE00E0084C002D04D1019800F009FD00E0064C200003B0F0BDC0460008000829
:400E800001008A00020188000301880004018A000A4B1B68DA68136883420BD943095901401A0121814052689B009B580B4203D0034802E0034800E003487047000800080E
:400EC0000101880004018A0000018800034B1B68002B01D1014B18607047C0460C080008F0B5474680B404000F0090461E002D4B1B68002B03D1B5212B4800F0FFFB294BD7
:400F00001B682C2060431C18FF22150035402560330A13406360360CA660244B1A683123D35C9D4204D3C421FF31214800F0E6FB1E4B1A68B023D35A6B43116A8C4663443A
:400F4000236166683223D35C9E4204D3E021FF31174800F0D3FB154B1B681D6A80367601AD196561A668330C04D0FF214900104800F0C4FB330C03D00E490D4800F0BEFB7B
:400F80003604330C1E43AE604346E36127620023A361069B002B02D000229B5EA38104BC9046F0BD0C080008F02C001010080008702C0010FF010000F0B58FB0041E03D1BE
:400FC0005221294800F09AFB6368032B03D95421254800F093FBE36A002B03D15821224800F08CFB236B002B03D159211E4800F085FB07AA1300210061C961C321C921C3CF
:4010000002AD290023001433C1CBC1C141CB41C10821535E0CAE3380144B1B6836215B5E07998C466344B370089B0D930B9B0A980096A26AE16AFFF753FF2B69E868002217
:4010400000920021FFF74CFF216B300000F0E8FA0023F25E002A05DB1F231A401E3B9340034A13600FB0F0BDF02C00101008000800E100E0F8B505000F0016001C00002A53
:4010800003D1FD21224800F039FB224B1B68002B03D1FE211E4800F031FB1E4B1B682C2128004843181879435918012213004D68AB401B044568AA4015000269002A20D0B1
:4010C0008F69002F1FD11268002A01DA002200E0114A002A19D132681204120C134333600369DE6001238B614C6204692B0C03D00A490B4800F002FB2A04120CA260002052
:4011000004E0084802E0084800E00748F8BDC046F02C00100C08000801008A00BB020000702C001004028A0007028A0070B504000D0016000F4B1B68002B04D1AF214900BE
:401140000D4800F0DBFA0B4B1B682C2060431C18236A002B04D1B1214900074800F0CEFAE369B34204D9236AB6009D51002000E0024870BD0C080008F02C00100A028A0006
:4011800070B582B0040000230193002804D1D221FF312D4800F0B2FA2369002B04D1E9214900294800F0AAFA6369002B04D1D421FF31254800F0A2FA236A002B04D1EA2186
:4011C0004900214800F09AFA6269D5682B0C24D01B041360136820691C4B1A68B423D358C3181B68002B18DA01A9FFF765FD00280ED1019803681E0CFF221340E2699342BF
:4012000007D29B00226AD358002B02D0984700E0002631002069FFF70FFD2D042D0C0FD063691D601B68636A002B03D098470023636203E0A36A002B00D098470023A3614D
:4012400063691B6802B070BDF02C00101008000810B50400084B1B68002B04D1B221FF31064800F04BFA044B1B682C2060431818FFF786FF10BDC0460C080008F02C001048
:4012800010B50400094B1B689B6CC340DB0703D4BE21074800F032FA044B1B681B691034A402E3580F20184010BDC04610080008302D0010134B1A683C23D35C83421DD9F6
:4012C000042904D94B1EFF3B9BB2132B18D8FF290CD91F2319400C4A0300C0339B009950D03080000423835000200AE007231940D0308000044BC150002002E0034800E03A
:4013000002487047100800080000264001004A0070B5041E03D14A494A4800F0EFF9B023DB00494AD358002B00DA87E0474B22689A4203D94649434800F0E0F923689B030B
:401340009B0BE279002A02D08022520400E000221343B022D2003C498B50A2883D4B9A4204D98C218900374800F0C8F922893A4B9A4203D93949334800F0C0F9A388DB04B3
:40138000D90C23891B04364A13400B43354A2E498B50A37A0F2B04D98E218900294800F0ADF9E37A0F2B03D92F49264800F0A6F9A289284B9A4203D92C49224800F09EF974
:4013C000A37A0F211940E27A1201FF2313400B43A289120226490A401343A27B1207C02189050A401343B122D20017498B50A379042B03D91F49134800F080F9228A164B42
:401400009A4204D9912189000E4800F077F90E4819494558194B1D40A3791B02E022D20013402B4343504558154B1D40238A1B040B4A13402B434350002000E0114870BD36
:401440001F020000702D001000002640FFFF030029020000FF1F0000FF010000310200000000FF0184050000390200003A02000000FF1F00430200008C050000FFF8FFFFD2
:40148000FFFF00FE03004A0070B505003149324A8B588020000603438B502C0003E0012000F020F9013CB223DB002A4AD3585B0701D4002CF3D12749B122D2008858274BC6
:4014C00003408020800503438B50002D01D0002C0CD02049B022D2008B588020000603438B5003E0012000F0FDF8013CB223DB00184AD358DB0701D4002CF3D1002D01D09E
:40150000002C08D01349B122D2008B58C020800503438B5013E00F4BB121C90058580F4A02408020800502435A5008395A58520052085A5008495A58520052085A50002D27
:4015400003D0002C03D0002002E0002000E0044870BDC046000026408C050000FFFFFFCF02004A0070B505000C001A4B1B6828229A5C012A15D1820807211000884327D115
:401580009200AD1AED00FF20A8401B6820339A181168AC4023004B40184004004C40146016E03A229B5EDBB2994203D176210A4800F0A4F8074B1B681B6807221540802273
:4015C000120615438022920194466444A400E55070BDC04610080008F82D001070B504000D000B4B9A680B4B9A420CD1002904D13821FF31084800F081F81034054BA4004E
:40160000E058E55003E01034A400044BE05870BD00ED00E000000008F82D001000000010F0B5474680B482B0061E01914AD04368032B03D93221264800F060F80023F05E0D
:40164000002804DBB178FFF78DFF002400E0214C0023F15E7368002912DB88081E4FC0308000C55903221140C900FC3290468A4095439A01434613408B402B43C35116E0BA
:4016800089B20F220A40083A92080632920013481018476803221140C900FF252A008A4097439A012B0013408B403B4343600B4B9A680B4B9A4206D10023F05E0199FFF704
:4016C0008DFF00E0034C200002B004BC9046F0BDF82D00100100560000E100E000ED00E00000000810B5034B1B78584300F0BCF810BDC046D400000801BEFEE770B50D008E
:40170000044C18220100200000F037FCA5610020FFF7F2FF00060008054B802212069A649B6C002B01DB002000E002487047C0460000274003004600054B802212019858FE
:401740005B68FF221A4202D08023DB021843704700002640FEE7C04610B50A4B0268DA6142681A6282685A62C2689A620269DA6242691A6382695A63C2699A63FFF7EAFF45
:4017800010BDC04600060008F0B5474680B4002801D0192300E064238B429B415B42304D2C682268A826A45BA41822680327BA433B401A4322602C682268A45BA21816687C
:4017C000284CA046264016602C682668AA229446A25A96193268BA43134333602A6813686546525BD3181A68444614401C60002805D010291BD921291BD8012024E0184BA5
:401800001B6855229A5C914215D956229A5C914213D957229A5C914211D958229A5C91420FD959229B5C99420DD804200CE000200AE0022008E0002006E0012004E00220F0
:4018400002E0032000E00520054A1268526813680F218B430343136004BC9046F0BDC04610080008FFFCFFFF0230800803D001300238FCD1C046C0467047EFF3108072B625
:40188000704780F31088704710B5B0235B059B899BB2002B04D0B0235B059B899BB201E080235B0080225200934215D1184C23681968683A9B58C9180B680F208343963AF7
:4018C00013430B6021680C689C23CB58E318196881430A431A6019E00D4C2368196898229B58C918B02040050A4BC2580A4B13400A681343C022920013430B602268116829
:401900009C23D358CB18054A82581A6010BDC0461008000848180000FFFCFFFF4418000030B5B0235B059B899BB2002B04D0B0235B059B899BB201E080235B008022520090
:40194000934215D1184C23681968683A9B58C9180B680F208343953A13430B6021680C689C23CB58E318196881430A431A6019E00D4D2B68196898229B58C918B0246405B6
:40198000C12040012258094B13400A681343C022920013430B602A6811689C23D358CB1822581A6030BDC04610080008FFFCFFFFB0235B059B899BB2002B04D0B0235B0539
:4019C0009B899BB201E080235B008022520093420DD1104B1B681A6898215B58D21811680D4B0B40C021C9010B43136011E0094B1B68196898229B58C918084BB02252055F
:401A0000D258074B13400A681343C022920013430B60704710080008FF8FFFFF18180000FFFCFFFF30B5B0235B059B899BB2002B04D0B0235B059B899BB201E080235B0043
:401A40008022520093420DD1134B1B681A6898215B58D2181168114B0B408021C9010B43136018E00C4D2B68196898229B58C918B02464050A4822580A4B13400A6813434E
:401A8000C022920013430B602A6811689C23D358CB1822581A6030BD10080008FF8FFFFF4C180000FFFCFFFF10B5B0235B059B899BB2002B04D0B0235B059B899BB201E042
:401AC00080235B0080225200934217D10020FFF7D7FBB0235B055B78002B04D0B0235B055B78DBB200E02123222B03D8002803D1013004E0012002E0002000E0012010BD69
:401B0000F8B50700012803D93D493E48FFF7F6FDB0235B055B78002B04D0B0235B055B78DBB200E021239DB2B0235B059B899BB2002B04D0B0235B059E89B6B201E0802600
:401B400076000020FFF79CFB002814D180235B009E4212D1222D12D82B4B1B685C682B4821582B4B19403B068022520413400B432350002404E0274C02E0264C00E0254C56
:401B800080235B009E4201D1222D03D880235B009E4232D01C4B1A683123D35C002B04D1C421FF311C48FFF7A9FD174B1B681D6A80235B009E4203D1002F05D0174A06E081
:401BC000002F03D0164A02E0164A00E0164A01212800FFF751F800280FD10B4B1A68B423D3585B191B68002BF7DBEB681B0E1B06A0221206934200D100242000F8BDC04686
:401C00004C0A00003C2E00101008000818F00000FFFFFFFE04004200B02B0010010100300300000C010000300100000CF8B50500012804D9822109012948FFF75FFDFFF7E3
:401C400033FF002849D0FFF718FE0700002D11D10021244B244AD150E823DB00B0225205D65CF6B20120FFF74BFF041E19D1FFF70BFE16E0B02252051C4BD0581A4B1949E6
:401C800058501B49565CF6B21A481A581F218A4314390A431A500320FFF724FDFFF7C2FE0024002C15D11049124A8B581F20834306401E438E50002D02D1FFF779FE08E03C
:401CC0000720FFF70FFDFFF72BFE0020FFF718FF04003800FFF7D5FD00E0074C2000F8BD3C2E0010307F00000000264010180000410700001CFF000003004200042805D102
:401D00000B4A116804230B4313600FE0094B1A681168A023D358CB180006C022920410401860034A136804218B4313607047C04610E000E010080008F0B54F464646C0B483
:401D400083B006000D0000921F00012B03D95B212B48FFF7D3FC330B03D05C212848FFF7CDFC284B1A686E23D35A9B08013B264A13432A009A4301D16B0003D45D2120489A
:401D8000FFF7BCFC32006A40F0231B011A40141E2FD1FFF772FD01901A4B18686C23C15A83689C4661446E23C35A9A08013A2A40920090466A22825A15402D0A5D432A00CC
:401DC000424455182A68920A9202FF231E40009B002B01D00134FF3426437F0280239B001F403E4316432E600198FFF74AFD002000E0064803B00CBC90469946F0BDC046B9
:401E00007C2E001010080008000F00400100CE000749C02252008B589B009B088020C00503438B508B588020000603438B50704700002640014B18607047C0461008000817
:401E4000002243088B4274D303098B425FD3030A8B4244D3030B8B4228D3030C8B420DD3FF22090212BA030C8B4202D31212090265D0030B8B4219D300E0090AC30B8B42F1
:401E800001D3CB03C01A5241830B8B4201D38B03C01A5241430B8B4201D34B03C01A5241030B8B4201D30B03C01A5241C30A8B4201D3CB02C01A5241830A8B4201D38B02B2
:401EC000C01A5241430A8B4201D34B02C01A5241030A8B4201D30B02C01A5241CDD2C3098B4201D3CB01C01A524183098B4201D38B01C01A524143098B4201D34B01C01A27
:401F0000524103098B4201D30B01C01A5241C3088B4201D3CB00C01A524183088B4201D38B00C01A524143088B4201D34B00C01A5241411A00D20146524110467047FFE782
:401F400001B5002000F006F802BDC0460029F7D076E770477047C046002310B59A4203D0CC5CC4540133F9E710BD03008218934202D019700133FAE77047030030B5002AB4
:401F80000DD00C7801335D1E013A2C700131002CF5D19A189A4202D01C700133FAE730BDF8B5C046F8BC08BC9E467047F8B5C046F8BC08BC9E467047030000000100000098
:401FC000010000000000000005036000040000000100000000000000010000000604600008000000C8070008B101001073797374656D5F70736F63365F636D30706C757355
:402000002E630000F4010000140004010A00090508000000630100000020344074008020344074000022344074008022344074000024344074008024344074000026344027
:402040007400802634407400002834407400802834407400802A344074000000002A34400C220010740000000021344080220010900000000023344010230010900000009B
:4020800000253440A02300109000000000273440302400109000000000293440C024001090000000002B3440502500109000000000603440E02500107C0000008060344007
:4020C0005C2600107C00000000613440D82600107C00000080613440542700107C00000000623440D02700107C000000806234404C2800107C00000000633440C828001091
:402100007C00000080633440442900107C00000000643440C02900107C000000806434403C2A00107C00000000653440B82A00107C00000080653440342B00107C000000B1
:4021400028082909800182208463868488088A808C258E9A98219CDE9E21A8A9AA50AC10B01FB280B402B660BE04D6FFDC04DF0DE301ECB428852C0B30F0340CA8B1ACA4DC
:40218000B02AB40A0001180102013440172A34400170344004713440047234400278344072000000000000000000000068066606000000000000000000000000121200002B
:4021C000030303003C000000000000000000000000EEE6BA0000000000000000000000000000020203021D1D370000000000000000000000EE0EEE000000000000000000A8
:4022000000000000020202000202000000200000000300000800100000001B00108708481AD1042A180005001AFD0400000820B60000200000000210000004002040183F3B
:402240000780074402A2A800000001004602000000ECFD623FFFFFFF0000000004000000000002010000000004040404000000010000C000300000108000200040401050D8
:40228000000000000000000000000000FFFFFFFFFFFFFFFFFFFFFFFFFFFFFFFFFFFFFFFFFF000000FFFFFFFFFFFFFFFFFFFFFFFFFFFFFFFFFFFFFFFFFF0000000000000048
:4022C0000000000000000000000000000000000000000000FFFFFFFFFFFFFFFFFFFFFFFF1111111111111111111111111111111111111111111111111111111111111111CA
:4023000011111111111111111111111111111111000000000000000000000000FFFFFFFFFFFFFFFFFFFFFFFFFFFFFFFFFFFFFFFFFF000000FFFFFFFFFFFFFFFFFFFFFFFFAE
:40234000FFFFFFFFFFFFFFFFFF000000000000000000000000000000000000000000000000000000FFFFFFFFFFFFFFFFFFFFFFFF1111111111111111111111111111111162
:402380001111111111111111111111111111111111111111111111111111111111111111000000000000000000000000FFFFFFFFFFFFFFFFFFFFFFFFFFFFFFFFFFFFFFFF11
:4023C000FF000000FFFFFFFFFFFFFFFFFFFFFFFFFFFFFFFFFFFFFFFFFF000000000000000000000000000000000000000000000000000000FFFFFFFFFFFFFFFFFFFFFFFFFF
:40240000111111111111111111111111111111111111111111111111111111111111111111111111111111111111111111111111000000000000000000000000FFFFFFFF70
:40244000FFFFFFFFFFFFFFFFFFFFFFFFFFFFFFFFFF000000FFFFFFFFFFFFFFFFFFFFFFFFFFFFFFFFFFFFFFFFFF00000000000000000000000000001F000000000F00000054
:4024800000000000FFFFFFFFFFFFFFFFFFFFFFFF111111111111111111111111111111111111111111111111111111D111111111E111111111111111111111111111111168
:4024C000721000000040000000000000FFFFFFFFFFFFFFFFFFFFFFFFFFFFFFFFFFFFFFFFFF000000FFFFFFFFFFFFFFFFFFFFFFFFFFFFFFFFFFFFFFFFFF0000000000000044
:40250000000000000000000000000000F01FFF0F40202F34FFFFFFFFFFFFFFFFFFFFFFFFD1111D111111111111111101D11011D11011D1101111111D111110F011111111C4
:40254000F11111111111111111111111111111110000000000000000000000000403FF12FF45FFFFFFFFFFFFFFFFFF230251241FFF000000FF20310342421F3FF245FF12E3
:402580003F0F5F45FFFFFFFFFF000000000000000000000000000000000003000510005200060000FFFFFFFFFFFFFFFFFFFFFFFFF616AF1411811418186311A4F71313F7F9
:4025C000175CFA173521171F91121CF311419313F191121C11111111113111111111111100000000000000001F1F1F1F1F1F1F1F1F1F1F1F1F1F1F1F1F1F1F1F1F1F1F1F9D
:402600001F1F1F1F1F1F1F1F000000000000000000000000000000000000000000000000FFFFFFFFFFFFFFFFFFFFFFFF11111111111111111111111111111111111111115A
:402640001111111111111111111111111111111111111111111111111111111100000000000000001F1F1F1F1F1F1F1F1F1F1F1F1F1F1F1F1F1F1F1F1F1F1F1F1F1F1F1F1A
:402680001F1F1F1F000000000000000000000000000000000000000000000000FFFFFFFFFFFFFFFFFFFFFFFF11111111111111111111111111111111111111111111111112
:4026C00011111111111111111111111111111111111111111111111100000000000000001F1F1F1F1F1F1F1F1F1F1F1F1F1F1F1F1F1F1F1F1F1F1F1F1F1F1F1F1F1F1F1F62
:40270000000000000000000000000000000000000000000000000000FFFFFFFFFFFFFFFFFFFFFFFF11111111111111111111111111111111111111111111111111111111C9
:40274000111111111111111111111111111111111111111100000000000000001F1F1F1F1F1F1F1F1F1F1F1F1F1F1F1F1F1F1F1F050D1F0C1F1F1F1F1F1F1F1F0000000064
:40278000000000000000000B000000000200000000000000FFFFFFFFFFFFFFFFFFFFFFFF1111111111111111111111111111111111F1111111111111111F11F1F11111114A
:4027C0001111111111111111111111111111111100000000000000001F1F1F081F1F1F1F1F1F1F1F1F1F1F1F041F141F1F1F100F1F1F1F1F1F1F1F1F000000000000000045
:4028000000000000000000000001000000F0000FFFFFFFFFFFFFFFFFFFFFFFFFD111111111111111111F1111111111111121111111111111111D11F1F1111F1111F11111A8
:4028400011111111111111F11111111100000000000000001F1F1F1F1F1F1F1F1F1F1F1F1F1F1F1F1F1F1F1F1F1F1F1F1F1F1F1F1F1F1F1F000000000000000000000000CC
:40288000000000000FF000FF000F00F0FFFFFFFFFFFFFFFFFFFFFFFF1111111111111111111D1111111111111111111111111111111111D1D1111D1111D111111111111127
:4028C000111111D11111111100000000000000001F1F1F1F1F1F1F1F1F1F1F1F1F1F1F1F1F1F1F1F1F1F1F1F1F1F1F1F1F1F1F1F00000000000000000000000000000000B0
:402900000000000000000000FFFFFFFFFFFFFFFFFFFFFFFF1111111111111111111111111111111111111111111111111111111111111111111111111111111111111111B7
:402940001111111100000000000000001F1F1F1F1F1F1F1F1F1F1F1F1F1F1F1F1F1F1F1F1F1F1F1F1F1F1F1F1F1F1F1F000000000000000000000000000000000000000033
:4029800000000000FFFFFFFFFFFFFFFFFFFFFFFF111111111111111111111111111111111111111111111111111111111111111111111111111111111111111111111111F3
:4029C00000000000000000001F1F1F1F1F1F1F1F1F1F1F1F1F1F1F1F1F1F1F1F1F1F1F1F1F1F1F1F1F1F1F1F000000000000000000000000000000000000000000000000F7
:402A0000FFFFFFFFFFFFFFFFFFFFFFFF1111111111111111111111111111111111111111111111111111111111111111111111111111111111111111111111110000000072
:402A4000000000001F1F1F1F1F1F1F1F1F1F1F1F1F1F1F1F1F1F1F1F1F1F1F1F1F1F1F1F1F1F1F1F000000000000000000000000000000000000000000000000FFFFFFFF7A
:402A8000FFFFFFFFFFFFFFFF1111111111111111111111111111111111111111111111111111111111111111111111111111111111111111111111110000000000000000EE
:402AC0001F1F081F1F1F1F1F1F1F1F1F1F1F1F1F02001F0C0C171F1F1F1F1F1F1F1F1F1F0000000000000000000000000000000020F05302F000F5FFFFFFFFFFFFFFFFFF36
:402B0000FFFFFFFFD1111111111111111111101111111111111211111111D1111D11111111111111111D111111D11111111111111111111100000000000000001F1F1F1F95
:402B40001F1F1F1F1F1F1F1F1F1F1F1F1F1F1F1F1F1F1F1F1F1F1F1F1F1F1F1F00000000000000000000000000001F000000000000000000FFFFEFFFFFFFFFFFFFFFFFFFEE
:402B800011111111111111111111111111111111111111111111111111111111111111111111111111111111111111111111111147656E6572617465645F536F7572636586
:402BC0005C50536F43365C70646C5C647269766572732F7065726970686572616C2F6970632F63795F6970635F6472762E68000047656E6572617465645F536F75726365EB
:402C00005C50536F43365C70646C5C647269766572735C7065726970686572616C5C6770696F5C63795F6770696F2E630000000047656E6572617465645F536F75726365ED
:402C40005C50536F43365C70646C5C647269766572735C7065726970686572616C5C6770696F5C63795F6770696F2E680000000047656E6572617465645F536F75726365A8
:402C80005C50536F43365C70646C5C647269766572735C7065726970686572616C5C6970635C63795F6970635F6472762E68000047656E6572617465645F536F75726365A3
:402CC0005C50536F43365C70646C5C647269766572735C7065726970686572616C5C6970635C63795F6970635F6472762E63000047656E6572617465645F536F7572636568
:402D00005C50536F43365C70646C5C647269766572735C7065726970686572616C5C6970635C63795F6970635F706970652E630047656E6572617465645F536F75726365C5
:402D40005C50536F43365C70646C5C647269766572735C7065726970686572616C5C70726F745C63795F70726F742E630000000047656E6572617465645F536F7572636580
:402D80005C50536F43365C70646C5C647269766572735C7065726970686572616C5C737973636C6B5C63795F737973636C6B2E630000000047656E6572617465645F536F47
:402DC000757263655C50536F43365C70646C5C647269766572735C7065726970686572616C5C737973636C6B5C63795F737973636C6B2E680000000047656E6572617465D8
:402E0000645F536F757263655C50536F43365C70646C5C647269766572735C7065726970686572616C5C737973696E745C63795F737973696E742E630000000047656E65A1
:402E400072617465645F536F757263655C50536F43365C70646C5C647269766572735C7065726970686572616C5C737973706D5C63795F737973706D2E63000047656E6591
:402E800072617465645F536F757263655C50536F43365C70646C5C647269766572735C7065726970686572616C5C747269676D75785C63795F747269676D75782E63000028
:402EC0000000204000002440000000400000000000002340000030400000314000009F40000022400000104002020202020202020210101D800017007500FF030602063658
:402F000004102000000000007FC0000000040000000000000019324B647D00804000080B100000000000FF012002001F00800004FF081018001000140018001C4044484C5C
:402F400050000000081000000800000004000000041000000012000004210000002100000016000040114002C41300138013A013200000001C000000000021400000254096
:402F8000000001400000344000002440000031400000324000001F410000234000001140010101010101010101101010800019005500F0000501053B04101C010100000072
:402FC0000FC000000004000001010101011D3A57789600082000101208000000001F00000010000F002000023F06080E00080009000A000B24282C3034000000100000001E
:403000009000000088000000080000008000000004F0000000F00000400200002005A000D00100018001A0012000000010000000000000000000001000000008C000000009
:4030400054300010C0000008400500003C060008D80100000048E80100127A0000093D0000093D0000093D0004000000A00F00000000D007E9000010C100001000000000A9
:4030800010B50004400B27D0144B1A68146AB023D15ACA00531AE3181B68002BF4DA3E220F4B1A600F4A104B1A60104B0621A322D20099500E4A98509B58084B1A68106A14
:4030C000B023D15ACA00531AC31800225A60084B064AD358002BFADA10BDC04610080008040126401E1F000008012640000026401C05000010B54378FF2B20D100F00AFAF7
:4031000004000F4B1A683123D35C042B04D8C421FF310C4800F02EFA094B1A68116AB023D35A9B00CB18DB685A68116801230B4313601368DB07FCD4200000F0F3F910BD78
:4031400010080008B02B0010F0B585B001900291544B1A683123D35C002B04D1C421FF31514800F007FA4F4B1B681E6AB4229A58971950229B5C002B77D000F0EBF9050032
:4031800003283CD1474B1A683123D35C062B04D8C421FF31444800F0EDF9424B1968B023CB5A5A00D21853000A6A94466344B4228A58D3181B68002B23DB002000F0C2F910
:4031C0003A4B98421FD03A4B1A6900230021012000F098F9002803D0364C17E0013400E00024002000F0AEF9304B984202D0324B9C42F3D9304B9C4207D92E4C06E0002424
:4032000004E02C4C02E02B4C00E00024002C46D100F080F90390294B294AD358002B13DA234A0121300000F09DF900280ED10298FFF726FF019B002B0AD03B68002BFCDB25
:4032400000F0A0F9040004E01A4C02E0194C00E01C4C032D05D10121002000F06BF90028F9D1039800F05EF919E000F053F905000F4A0121300000F075F9002809D1019B97
:40328000002B08D03B68002BFCDB00F07BF9040002E0084C00E00B4C280000F043F9200005B0F0BD10080008B02B001001018800E807000805005200EF4902001C0500007D
:4032C0000000264001005000F0B54F464646C0B4824B1A685468B0235B055B78002B04D0B0235B055B78DBB200E02123212B67D1B023D15ACB005B1A116A8C4663441968DF
:403300000029F5DADD6802212943D960B023D15ACB005B1A116A8C466344D968C9073ED5D9680904090C8C4684271168D559A84641440968090A0904FF26360431400D00CA
:4033400088261168894691598846C14449460968090A0906294365462943D9601168D359C9180A685E4B98461A4090252D012A430A605A4B99461A6813689C469259624435
:403380001368414619400B002B4313604B461A681568D15969180B689359EB181B684F4B1A68B021555AEB005B1B156AAC46634400255D60156A515ACA00531AEB185B6888
:4033C000484A116904230B431361012801D030BF00E020BF414B1A68B023D15ACB005B1A116A8C46634419680029F3DAB02149054978002904D0B02149054978C9B200E061
:403400002121212932D1D968C90722D510688421525880180468324A1440DB681B0C1B02FF2109020B40234303602C4B19688823C8580B689C46604403681A400D6AB023C9
:40344000CC5AE1000B1BEB18DB681B0E1B021A430260224B1A68106AB023D15ACA00531AC318DA6802218A43DA6028E086235B00E358002B23D11C4807681C4BA321C900C2
:403480005E581B4A904615681A4A0260062058503E21424611600631174A9950164B134AD358002BFADA154A86235B00E2500E4B1F60A323DB000D4AD6500D4B1D60074B97
:4034C0001A68106AB023D15ACA00531AC31800225A600CBC90469946F0BDC04610080008FF00FFFF00ED00E00801264000002640040126401E1F00001C050000AAAAAAAA84
:403500000000000001B40248844601BC604700BF7510001001B40248844601BC604700BF7B18001001B40248844601BC604700BF8318001001B40248844601BC604700BFF8
:40354000050E001001B40248844601BC604700BF910E001001B40248844601BC604700BF3504001001B40248844601BC604700BF790C001001B40248844601BC604700BFEB
:40358000FD16001001B40248844601BC604700BFAD0A0010000000000000000000000000000000000000000000000000000000000000000000000000000000000000000035
:4035C00000000000000000000000000000000000000000000000000000000000000000000000000000000000000000000000000000000000000000000000000000000000CB
:020000041008E2
:4000000000780408EB0208100D00000051030810510308105103081051030810000000000000000000000000000000004D0308104D030810000000004D0308104D030810DA
:400040004D0308104D0308104D0308104D0308104D0308104D0308104D0308104D0308104D0308104D0308104D0308104D0308104D0308104D0308104D0308104D03081000
:400080004D0308104D0308104D0308104D0308104D0308104D0308104D0308104D0308104D0308104D0308104D0308104D0308104D0308104D0308104D0308104D030810C0
:4000C0004D0308104D0308104D0308104D0308104D0308104D0308104D0308104D0308104D0308104D0308104D0308104D0308104D0308104D0308104D0308104D03081080
:400100004D0308104D0308104D0308104D0308104D0308104D0308104D0308104D0308104D0308104D0308104D0308104D0308104D0308104D0308104D0308104D0308103F
:400140004D0308104D0308104D0308104D0308104D0308104D0308104D0308104D0308104D0308104D0308104D0308104D0308104D0308104D0308104D0308104D030810FF
:400180004D0308104D0308104D0308104D0308104D0308104D0308104D0308104D0308104D0308104D0308104D0308104D0308104D0308104D0308104D0308104D030810BF
:4001C0004D0308104D0308104D0308104D0308104D0308104D0308104D0308104D0308104D0308104D0308104D0308104D0308104D0308104D0308104D0308104D0308107F
:400200004D0308104D0308104D0308104D0308104D0308104D0308104D0308104D0308104D0308104D0308104D0308104D0308104D0308104D0308104D0308104D0308103E
:400240004D0308104D0308104D0308104D0308104D0308104D0308104D0308104D0308104D0308104D0308104D0308104D0308104D0308104D0308104D0308104D030810FE
:400280004D0308104D0308104D03081010B5054C237833B9044B13B10448AFF300800123237010BDBC4902080000000008490910084B10B51BB108490848AFF300800848F4
:4002C000036803B910BD074B002BFBD0BDE81040184700BF00000000C04902080849091088430208000000007047FFF7FDFF72B6104C114DAC4209DA21686268A368043B64
:40030000A2BFC858D050FAE70C34F3E70B490C4A00209142BCBF41F8040BFAE709480A490860BFF34F8F00F0C5FD00F09FFD00F0AFF9FEE70C49091024490910BC49020886
:40034000401003080040020808ED00E0FEE7FEE700B504207146084202D0EFF3098001E0EFF30880043002F0C7F8FEE738B505460C460C4B1B6893F833308B4204D840F2E0
:40038000FA51094802F0A8F8064B1B68B3F85A00B3F85C30284404FB03F4035943F00043035138BDC80E0308E0B9081070B504460E4615460E4B1B6893F833308B4204D85F
:4003C00040F203710B4802F087F835F0010304D040F20471074802F07FF8054B1B68B3F85A102144B3F85C3006FB03118D6170BDC80E0308E0B9081010B5464BB3F90030BF
:40040000002B09DB5A0903F01F03012101FA03F36032414941F82230404B1B6893F8333023B940F2B3613E4802F056F83B4B1A68B2F85A3003F1804303F5201301211961DD
:40044000B2F85A3003F1804303F520131B6992F8333023B940F29B61314802F03DF82F4B1B68B3F85A3003F1804303F520135B6803F00F03012B02D101222A4B1A70294BDA
:400480005B68D3B121E0274B9B68B3F5806F18DA254B186800F058FE94FBF0F300FB134048B9204A9368214931F81400204921F8130001339360013400E00024B4F5007FD6
:4004C000E1DB0122174B5A6010BD012B21D119E0144B9B68B3F5806F18DA134B186800F033FE94FBF0F300FB134048B90D4A9368104931F814000E4921F8130001339360E0
:40050000013400E00024B4F5007FE1DB0022054B5A6010BD28BB081000E100E0C80E0308E0B90810D84902088C4202085406030854FE02084CD6020810B54C4BB3F900302F
:40054000002B09DB5A0903F01F03012101FA03F36032474941F82230464B1B6893F83330012B04D840F2B361434801F0B5FF414B1B68B3F85A2002F1804202F52012B3F8F7
:400580005C100A4401211161B3F85A2002F1804202F52012B3F85C100A44126993F83330012B04D840F29B61334801F095FF314B1A68B2F85A3003F1804303F52013B2F828
:4005C0005C2013445B6803F00F03012B02D101222A4B1A70294BDB68D3B121E0274B1B69B3F5806F18DA264B186800F0ADFD94FBF0F300FB134048B9204A1369214931F8BF
:400600001400214921F8130001331361013400E00024B4F5007FE1DB0122184BDA6010BD012B21D119E0154B1B69B3F5806F18DA134B186800F088FD94FBF0F300FB134027
:4006400048B90E4A1369114931F814000E4921F8130001331361013400E00024B4F5007FE1DB0022054BDA6010BD00BF20BB081000E100E0C80E0308E0B90810D84902081D
:400680008C4202084CE602084CDA020854EA0208F0B58BB062B6B64E069600258DF81C50032308938DF824508DF82550B14C02948DF80C5004938DF814508DF81550AE4977
:4006C000304600F09FFFAD4F7760AD4BB360AD4EAD49304600F096FF7760AC4BB360AC49204600F08FFFAB4E6660AB4BA360AB4CAB49204600F086FF6660AA4BA360AA4C40
:4007000006AA0121204601F0B5F802AA2946204601F0B0F8236843F000432360236843F00043236001212046FFF720FE29462046FFF71CFE9D4C9E49204601F06FFEB4F9FF
:400740000030AB4208DB590903F01F03012202FA03F3984A42F82130012211469248FFF725FE954C9549204601F058FEB4F90030002B08DB590903F01F03012202FA03F330
:400780008C4A42F82130012200218748FFF70EFE00F020FF00F0F0FE00F0C2FE02F0BCFE00F09CFB4FF47A7001F072FE04230522F0214FF4A07000F0C1FB04230193052324
:4007C000009308230A22F0214FF4A07000F0DCFB0F23C8224FF4FA714FF47A7000F010FC0F230A220121084600F068FC042301930523009308230A22F0214FF4A07000F0AE
:40080000C3FB6F480F23C8224168006800F0F8FB6C480F230A224169806900F04FFC022002F042FD684B1B6803EB83039A00674B1A445368012B04D84FF47671644801F022
:400840004BFE0121634801F0AFFD80B200F0ACFC85B2614BC3F80C515A4B1B69B3F5806F40DB584B1B7F73B9554E5C4C726821465B4800F053FC3168204600F0A5FC514B22
:400880009861002428E04E4C544E62683146544800F044FC6368A2685249304600F0CEFC2168304600F090FC464B9861E9E7454B1B7F43B9FF2300932B464B4A474920467E
:4008C00000F0EEFC07E0FF2300932B46464A4549204600F0E5FC0134B4F5A07FE7DB0022384B1A61384B1B6803EB83039A00374B1A445368022B04D84FF47671344801F08E
:40090000EBFD0221334801F04FFD80B200F04CFC85B2314BC3F80C512A4B9B68B3F5806FFFF664AF274B5B7F73B9254E2F4C726821462F4800F0F2FB3168204600F044FC7E
:40094000204B586100246EE01D4C284E62683146274800F0E3FB6368E2682649304600F06DFC2168304600F02FFC164B5861E9E784CB0208B8CB020800BC081080011D4194
:400980004CE602089CCB020830BC081054EA0208C4BC08108C011D4154060308D0CB0208F4BC08104CD602080000284020BB08103905081000E100E028BB0810F90308103C
:4009C0008C420208D84902087CCB020874BB08101CBA081000001D410000384054F602084CDA020854EE020854FA02084CE2020854FE02084CCE02080E4B5B7F4BB94FF43E
:400A00007F4300932B460C4A0C49204600F048FC08E04FF47F4300932B46074A0849204600F03EFC0134B4F5A07FE5DB0022014B9A60DBE6D8490208640A03084CE20208C6
:400A40004CCE020838B500F0A9FC754C0425A560142003F0D1FA6560642003F0CDFAA560642003F0C9FA282000F0E2FC112000F0DFFC642003F0C0FA362000F0D9FCA0208F
:400A800000F0E6FC3A2000F0D3FC652000F0E0FCB22000F0CDFC0C2000F0DAFC0C2000F0D7FC002000F0D4FC332000F0D1FC332000F0CEFCB72000F0BBFC352000F0C8FC0A
:400AC000BB2000F0B5FC2B2000F0C2FCC02000F0AFFC2C2000F0BCFCC22000F0A9FC012000F0B6FCFF2000F0B3FCC32000F0A0FC112000F0ADFCC42000F09AFC202000F047
:400B0000A7FCC62000F094FC0F2000F0A1FCD02000F08EFCA42000F09BFCA12000F098FCE02000F085FCD02000F092FC002000F08FFC052000F08CFC0E2000F089FC152007
:400B400000F086FC0D2000F083FC372000F080FC432000F07DFC472000F07AFC092000F077FC152000F074FC122000F071FC162000F06EFC192000F06BFCE12000F058FCF6
:400B8000D02000F065FC002000F062FC052000F05FFC0D2000F05CFC0C2000F059FC062000F056FC2D2000F053FC442000F050FC402000F04DFC0E2000F04AFC1C2000F073
:400BC00047FC182000F044FC162000F041FC192000F03EFC2B2000F02BFC002000F038FC002000F035FC002000F032FCEF2000F02FFC2A2000F01CFC002000F029FC00208E
:400C000000F026FC012000F023FC3F2000F020FC0A2003F0F1F9292000F00AFC38BD00BF8002324030B5A1B000241B941C941D941E941F946822214601A80AF051FA234602
:400C400022461449144802F083FD05464FF4A072F021204605F0BBF84FF4A072F021204605F0CCF806231D931BA9284603F0ADFD0A4B01930A4B02930A4B04930A4B069348
:400C80000A4B08930A4B0B4A01A9284603F0BDFD21B030BD90420910E8420910311408105114081071140810811408108D1408101D4F0810B5520810012904D108B5FFF7B7
:400CC000C1FE002008BD4FF0FF30704708B5012001F0F6F908BD00BF704700BF5C4AD2F8803303F00F0303F1D00152F8212002F00702032A04D0042A05D092B9554914E01F
:400D0000554A116811E003F1C002514951F8222002F01F02112A06D0132A04D04FF4FA4103E04E4901E04FF400418BBB484BD3F8902502F00100D3F88825C2F30172D3F886
:400D4000883513F0405F07D0414BD3F88835C3F30173012B02D102E0012300E0002303B108B9032A46D13A48D0F88025C2F31103D0F88425C2F30C02D0F88005C0F30060F2
:400D80000130B1FBF2F202FB03F2B2FBF0F131E0012B2FD12E4BD3F8402602F00100D3F80026C2F30172D3F8003613F0405F07D0274BD3F80036C3F30173012B02D102E007
:400DC000012300E0002303B108B9032A12D12048D0F8002602F07F02D0F80036C3F30423D0F80006C0F3044002FB01F2B2FBF3F2B2FBF0F1164BD3F88033C3F3011321FA0A
:400E000003F215494A601648D0F89030C3F3072301330069000E0130B2FBF0F08860B2FBF3F3CB600B6103F5742202F23F220D48A0FB0202C2F387420A7503F2E7330A4A3D
:400E4000A2FB03239B098B61DB03CB61704700BF0000264000127A00A042020800366E010000214083DE1B43D34D621008B50D4801F0D4FCFFF730FFFFF730FF00221146D4
:400E8000042000F0E5FE084800F078FF074B1B6893F8513013B1064800F0E0FF00F022FE08BD00BFD4BF0810F8490208C80E03083CBA081008B501F07CFB074AD2F8883051
:400EC00043F47003C2F88830BFF34F8FBFF36F8F01F073FB08BD00BF00ED00E008B5114802F030FA4FF47F0002F020FA0E4802F021FA02F0E1FA0E2002F050FA7822A021F1
:400F00000A4802F0C3FC0A4802F01CFA094802F011FA022002F042FAC822A021064802F0B5FC08BD8CFC0810FF80FF0070BA0810F4D5081080FF80007CBA0810F8B50646CE
:400F40000F4614461D46002002F0F0F90C4802F0F1F93B4632460021084602F0B5FC012002F0A2F9074802F0E5F97B1B321B2946204601F059FC022002F0EEF9F8BD00BFEF
:400F800000808000D3D3D3002DE9F04F83B083468A46174699460C9D0D9EA0EB450393FBF2F30193A1EB460898FBF9F8012002F07BF9124802F0BEF9022002F0CDF9012446
:400FC00008E008FB04610B46C5EB0B02284602F0C1FE01344C45F4DB0124DDF8048008E008FB0450C6EB0A030246314602F0B2FE0134BC42F4DB03B0BDE8F08FD3D3D300B1
:40100000F0B587B007460C4615461E46224802F08DF9224802F096F9214802F08BF9B7F57A7F0ADB1F4A82FB0732FF17C7EBA2121D4901A80AF05CF804E03A461B4901A8D7
:401040000AF056F83246294601A802F01FFC154A82FB0432E317C3EBA2124FF47A7101FB1241B4F57A7F04DB114901A80AF040F809E0104B83FB0103C917C1EB63130E49CB
:4010800001A80AF035F806F11402294601A802F0FDFB07B0F0BD00BF008080008CC00810D3D3D300D34D621094BA0810A8BA0810BCBA08101F85EB51D0BA0810F0B587B0F3
:4010C00007460E4614461D460F4802F02FF90F4802F038F90E4802F02DF93A460D4901A80AF006F82A46214601A802F0CFFB3246094901A809F0FCFF05F11402214601A803
:4011000002F0C4FB07B0F0BD008080008CC00810D3D3D300E8BA0810FCBA081030B400240AE030F81450074B03FB05F3D50293FBF5F321F814300134B4F5007FF1DB30BCB0
:40114000704700BFB882010082B007EE900AB8EEE77ADFED146AC6EE877AB1EE007A67EE877AB7EE007AF4EEC77AF1EE10FA08D5F0EE476A86EEA77AFDEEC77ACDED017AFB
:401180000DE0B7EE007AF4EEC77AF1EE10FA04DDFDEEE77ACDED017A01E001230193019802B0704700000042C0F30A00C0EB00100301044880FB03201844DB17C3EBA020B6
:4011C000704700BF01021080F8B5B0F800E0C488A64501DD012500E000250A2342F210771EE065B11E4630F81320944217DA964515DD043630F81660B2420DD80FE01E461E
:4012000030F8132094420ADB964508DC043630F81660B24202D802E01F4600E01F460133B3F5FE7FDDDB0846FFF78EFF00FB07F0014B93FBF0F0F8BD40420F0070B412039A
:40124000154E86FB02461644D217C2EBE626134A02FB06F2DB0292FBF3F60022134606E030F81250741FA54200D113460132B2F5007FF5DB00220AE0B3F5007F01DB4FF497
:40128000B47330F8134021F8124001330132B2F5A07FF1DB70BC7047EF09E09EB88201002DE9F0410446884617461D460F4802F041F8661C37F81630324637F814102046CB
:4012C00002F048FD069802F035F838F8141038F816302B4432462944204602F03BFD38F814301D4427F81450BDE8F08100808000024A136801331360704700BF640E03087D
:40130000014B1868704700BF640E0308044B1B681844034B1B68C31A002BFADC704700BF640E030810B52021002001F087F9002409E0204601F0B2F920B90849204601F0F7
:401340009FF902E00134042CF3D9042C03D9A421034801F0C1F801F049F910BDF112081010BB081008B5FFF7DDFF08BD08B54FF40041034801F0A0FB024802F069F808BD30
:40138000784B0208083B09100822034B1A70092203F580731A7070472812344008B5044B1B7823B9FFF7F0FF0122014B1A7008BD78CB020830B400240BE0084B1B7813F0B6
:4013C000010FFAD1064B18700D5D03F580731D7001349442F1D330BC704700BF2816344028143440084B1B7813F0010FFAD140F00200064B1870044B1B7813F0020FFAD035
:40140000034B1878704700BF28163440281434402C163440F8B507460E461546002404E03846FFF7DFFF30550134AC42F8D3F8BD054B1B7813F0010FFAD10022034B1A705A
:4014400003F58073187070472816344028143440054B1B7813F0010FFAD10122034B1A7003F5807318707047281634402814344008B58AB201460120FFF79CFF08BD00BF22
:4014800008B50120FFF7AEFF08BD00BF08B58AB201460120FFF7BEFF08BD00BF38B504461D4B1A68916892F8703003F0010343F08043C1F800340369FF2B0AD89168B2F856
:4014C00074200A44516821F47F411B029BB20B435360114B1A68906892F87310032303FA01F592F8703092F8721003FA01F1294303F001030B4343F00043C0F800349368E2
:40150000D3F80034054D0021284600F0EFFEA168284600F0EBFD38BDC80E030800001D4108B5074B5B6813F4802F04D00121044800F024FF08BD0021014800F01FFF08BD8C
:4015400000001D4108B5084B1B7963B90749084800F064FF044B5B792BB90122024B5A710448FFF79BFF08BD7CCB0208A515081018BB081074BB081008B5084B1B7913F07B
:40158000010F06D1FFF7DEFF044A137943F001031371034800F0E2FE08BD00BF7CCB020800001D4110B5094BD3F81042072C04D940F23161064800F08FFF044BC3F810425C
:4015C000D3F81022D3F8103210BD00BF00001D4138BB081008B5084B1B783BB9074A0021074801F065F80122034B1A70044B01229A609A6108BD00BFB5CB020860BC0810A2
:4016000000003840002800F0248138B50546002900F021810C460B78032B03D95721914800F05AFF6378032B03D958218D4800F053FFA378032B03D959218A4800F04CFFE8
:401640002379032B03D95A21864800F045FFA379012B03D95B21834800F03EFFE379012B03D95C217F4800F037FFE378012B03D95D217C4800F030FF6379022B03D95E21B9
:40168000784800F029FF237A032B03D95F21754800F022FF237803F003016278930003F00C030B43A278120102F03002134322799201D2B21343A279920602F08062134382
:4016C000E279D20602F000621343E278120602F0807213436279120702F040521343227A43EA82732B60E3686B602369AB60237A032B00F2B280DFE803F002063388E36AE4
:40170000EB60002038BD636903F50063B3F5805F03D37821534800F0DFFEA36903F50063B3F5805F03D379214E4800F0D5FEE369013BFF2B03D97A214A4800F0CDFE6369CB
:40174000C3F30B02A369484901EA03331A43E369013B42EA0363EB60E36A2B61002038BD636903F50063B3F5805F03D387213D4800F0B2FEA36903F50063B3F5805F03D323
:401780008821384800F0A8FEE369013BFF2B03D98921344800F0A0FE236A03F50063B3F5805F03D38A212F4800F096FE636A03F50063B3F5805F03D38B212A4800F08CFE20
:4017C000A36A013BFF2B03D98C21264800F084FE6269C2F30B01A269234B03EA02320A43E169013942EA0162EA60226AC2F30B02616A03EA01331343A26A013A43EA0263D4
:401800002B61E36A6B61002038BD184B1B6893F82A30012B23D9636903F50063B3F5805F03D3A1210F4800F057FEE369013BFF2B03D9A2210B4800F04FFE6369C3F30B03A8
:40184000E269013A43EA0263EB60E36A2B61002038BD07487047064838BD054838BD044838BD00BF24BD081000F0FF00C80E030801004E00002860D0F8B50346002A5ED0CE
:40188000106800285DD03148006890F83300884259D91E4614460D469368032B03D9EF212B4800F019FE2768284B1B6893F833309D4204D340F2E151264800F00DFE234BBF
:4018C0001A68B2F85A309919B2F85C3005FB0313DF60B2F85A10B2F85C30314405FB03118B681B0C1B048B60B2F85A301E44B2F85C1005FB01F123792BB192F85F7001236B
:4019000003FA07F700E00027A06892F85E50A8400322AA4000EA02033B43227B12B14FF0004200E000221343627B0AB1042200E00022134373500020F8BD074870470648C6
:40194000F8BD0548F8BD0448F8BD00BFC80E030824BD081060BD081001004E001F4B98422DD00CD840282ED003D8E8B1102828D02FE0802829D0B0F5807F28D029E0184BAB
:40198000984228D006D8B0F1204F0DD0154B984212D01EE0144B98420AD00133984209D0023B984215D101E0002070470F4870470F4870470F4870474FF4A00070470748AE
:4019C00070470D4870470D4870470D487047034870470C4870474FF4A400704706005200010000F0090000A0040000F00100520002005200030052000100500002005000DC
:401A000005005200FF00520038B5124B1B6893F83130012B04D840F2C3110F4800F05CFD0C4B1D682A6AB5F8B03013442C46D5F8B420D358002B0BDB084B1868FFF78EFF9E
:401A40006B6801229A6063689B68002BFBD138BD034838BDC80E03089CBD0810ECCB0208020050001A4B186128B102230370FF23437000234380174B1B6893F850202AB350
:401A800000B583B0B3F93830ADF80030002301931149684600F0C2FCBDF90030002B08DB590903F01F03012202FA03F30B4A42F82130084B1B6893F8513023B1022208495D
:401AC000012000F077FA03B05DF804FB704700BFECCB0208C80E0308F943020800E100E0B144020808B50248FFF7BCFF08BD00BF00CC020838B50B4B1B68D3F8B4301B5845
:401B0000002B0DDA0D4604460B0C1B0423B140F2D521054800F0E0FCA9B26160002038BD024838BDC80E0308DCBD081001008A0038B50368002B01DA002300E0094B73B93D
:401B40000D460446C2600B0C1B0423B140F2BB21054800F0C1FCA9B2A160002038BD014838BD00BF01008A00DCBD081038B504460D4619B99921084800F0AEFC074B1B6815
:401B8000D3F8B4301B59002B03DAE3682B60002038BD034838BD00BF1CBE0810C80E030801008A00254B1B6893F8313083423AD900293AD00B6813F01F0F38D170B50D46A3
:401BC00004461E4B1B6893F83130984204D340F2C3111B4800F080FC184B1B68186AB3F8B03004FB0304174E34602A68D2080021686809F075FA00212046FFF77BFF3468F3
:401C000025B940F293310E4800F066FC2A4600212046FFF78DFF60B900210A4B1868FFF769FF40B970BD084870470748704706487047064870BD054870BD00BFC80E030875
:401C4000DCBD081004CC020803018A0001018A0010B504461346B2B9A9B9124B1B6893F83130984204D340F2C3110F4800F034FC0C4B1B681A6AB3F8B03004FB03240B4B2B
:401C80001C60002010BD43B149B1084A51609360111D2046FFF786FF10BD054810BD044810BD00BFC80E0308DCBD081004CC020803018A002DE9F0411B4B1B68DC68236810
:401CC00083422CD90D464609A0EB4610012303FA00F819B900F06DFC074600E00027124B18680368002B01DA002300E00F4B83B9626852F8263018EA030F05D023EA0803AD
:401D000042F82630002400E0094C0021FFF7F2FE00E0084C25B9384600F04FFC00E0064C2046BDE8F08100BF04CC020801008A00020188000301880004018A000B4B1B6897
:401D4000DB681A6882420CD94109A0EB4110012202FA00F05B6853F82130184203D004487047044870470448704700BF04CC02080101880004018A0000018800024B1B6820
:401D80000BB9014B1860704710CC02082DE9F8430446884691461D46089F2C4B1B681BB9B5212B4800F098FB284B1B682C2000FB04F01C18EEB21E50C5F3072363602D0CC9
:401DC000A560244B1B6893F831309E4204D340F2C311214800F080FB1E4B1B68196AB3F8B02006FB02162661666893F832309E4204D340F2DF11184800F06EFB154B1B68B5
:401E00001D6A803605EB46156561A668330C1B0423B14FF4FF71104800F05EFB330C1B0423B140F2FF110C4800F056FBB3B243EA0646AE60C4F81C90C4F820800023A361E0
:401E400017B1B7F90030A381BDE8F88310CC02085CBE0810C80E0308DCBD0810F0B58FB0044618B95221274800F036FBA369072B03D95621234800F02FFBE36A1BB958211A
:401E8000204800F029FB236B1BB959211D4800F023FB07AD04F114060FCE0FC537682F6002AD26460FCE0FC533682B60164B1B68B3F93620079B1344ADF83030089B0D939C
:401EC000A26AE16A0CAD00953B460A98FFF75EFF00210091069B0A460598FFF757FF216B284600F09BFABDF93030002B08DB590903F01F03012202FA03F3044A42F8213033
:401F00000FB0F0BD5CBE0810C80E030800E100E0F8B506460F461D4614461AB9FD211F4800F0DAFA1E4B1B681BB9FE211B4800F0D3FA1B4B1B682C2101FB063001FB07319F
:401F40004B68012202FA03F31B04466802FA06F60269EAB18F69EFB91268002A01DA002200E0104AC2B92288134323600369DC6001238B614D620469330C1B0423B140F21D
:401F8000BB21094800F0A8FAB2B2A2600020F8BD0648F8BD0648F8BD0548F8BD5CBE081010CC020801008A00DCBD081004028A0007028A00F8B505460F4616460E4B1B6823
:401FC00023B94FF4AF710D4800F086FA0A4B1B682C2404FB0534236A23B94FF4B171074800F07AFAE369B34204D9236A43F826700020F8BD0248F8BD10CC02085CBE081094
:402000000A028A0070B582B000230193044620B940F2D111284800F05FFA236923B94FF4E971254800F058FA636923B940F2D311214800F051FA236A23B94FF4EA711E4889
:4020400000F04AFA6369DD682A0C20D012041A601B682069194B1B68D3F8B430C358002B15DA01A9FFF782FD60B9019803681E0CDBB2E269934206D2226A52F8233013B1B6
:40208000984700E0002631462069FFF733FDADB275B16369ADB21D601B68636A1BB198470023636202E0A36A03B198470023A36163691B6802B070BD5CBE0810C80E03081B
:4020C00010B50446074B1B6823B940F2B111064800F002FA034B1B682C2000FB0430FFF791FF10BD10CC02085CBE08102DE9F8430E46074618B93A21754800F0EDF91EB9B3
:402100003B21734800F0E8F9002F00F0DA80002E00F0DA8032686F4B13401BB14A216C4800F0DAF972686C4B13401BB14B21684800F0D2F9B36813F0FC2F03D04C216448B5
:4021400000F0CAF9F36813F0FC2F03D04D21604800F0C2F9337D032B03D94E215C4800F0BBF9B369B3F5803F03D34F21584800F0B3F9F36D072B03D95021554800F0ACF908
:40218000336EB3F5803F03D35121514800F0A4F9736EB3F5803F03D352214D4800F09CF9736843F000437B60B3683B61F3687B613369BB61337D9B07FB61B3693B6233682A
:4021C00003F46068736803F00409002435E02546A31D06EB83035A68404B13401BB163213B4800F079F9AB1D06EB8303596805F1200247F822105B6813F0012F0BD1B8F58D
:40220000606F08D1B9F1000F05D04FF47842344B23F8152003E00022314B23F81520726F02F11C7303F58033520093FBF2F31BB22C4A42F825300134E4B20F2CC7D9F36D20
:40224000C7F81832F36DC7F81032336EC7F82832336EC7F82032736EC7F83832736EC7F8303296F87030DBB1B36EB3F1804F03D38221174800F030F9F36E23F44F0323F060
:40228000FF031BB18321124800F026F96FF04043C7F80433B36EC7F80033F36EC7F84433D7F8003F3F2B02D0D7F8003F13B90B23C7F8003F336843F400133B600020BDE82C
:4022C000F8830948BDE8F8830748BDE8F88300BF9CBE08100811DF0001FE302088CA887E680E0308880E03080100060038B50D46044618B9B521174800F0EEF82CB3002322
:40230000236063604FF0031222616261A361E361236206E003F12002002144F822100133DBB20F2BF6D90023C4F81832C4F82832C4F838325DB16FF04043C4F80433002033
:40234000C4F84003C4F8440338BD034838BD002038BD00BF9CBE08100100060008B50368002B0ADBD0F8A032002BFBDB036843F000430360022000F0A3F808BD38B5054618
:402380000C46012904D940F27111064800F0A4F8012C04D16B6843F480336B6038BD01236B6238BD9CBE081038B505460C460F2904D940F27B21064800F08EF80F2C04D817
:4023C000603455F8240080B200E0002000B238BD9CBE081038B50D4B9A680D4B9A420FD10D46044621B940F237110A4800F074F804F11003064A52F8230042F8235038BD2C
:402400001030054B53F8200038BD00BF00ED00E000400208D8BE08100000081048B338B504460D464368072B03D93221134800F053F8B4F900306268002B08DB5201D2B25D
:4024400003F1604303F5614383F8002305E003F00F035201D2B20A49CA540A4B9A680A4B9A4208D12946B4F90000FFF7B3FF002038BD06487047002038BD00BFD8BE081098
:4024800014ED00E000ED00E0004002080100560010B5044605E0084B186800F081F8A4F50044B4F5004FF6D8044B186800FB04F000F076F810BD00BFBC420208B842020846
:4024C00008B5034B1B7800FB03F000F069F808BDB442020801BEFEE738B50D46044C18220146204608F028FEA5610020FFF7F2FF28490208FEE700BF08B50268254BDA6103
:4025000042681A6282685A62C2689A620269DA6242691A6382695A63C2699A631E4A916AD963D16A1964516A5964516B9964926BDA64F1EE103A13F0900F27D0026A154BB9
:402540001A65426A5A65826A9A65C26ADA65026B1A66426B5A66826B9A66C26BDA66026C1A67426C5A67826C9A67C26CDA67026DC3F88020426DC3F88420826DC3F8882081
:40258000C26DC3F88C20026EC3F89020FFF7B2FF08BD00BF2849020800ED00E0000000000230800803D001300238FCD100BF00BF7047EFF3108072B6704780F3108870472A
:4025C000084B1B6813F4803F07D17047064B53F8243003B19847013401E010B50024042CF4D910BD10E000E050CC0208044B1A6842F002021A601A6842F001021A60704705
:4026000010E000E0042805D10A4A136843F0040313607047084B1B681A68D3F8A030000600F04070D050034A136823F004031360704700BF10E000E0C80E030810B50C4649
:40264000002304E000210A4A42F823100133042BF8D9084A084BDA63FFF7D4FF24F07F44064B5C6000229A60FFF7C0FF10BD00BF50CC0208C12508100040020810E000E013
:402680000346042805D8044A52F8200042F8231070470020704700BF50CC0208042803D8024B53F8200070470020704750CC0208002800F0AC8070B40446002A00F0A980C8
:4026C00092F828300BB1012500E00025137F0BB1022300E000231D431669B60406F4802645EA060395682D0405F440351D431668300600F0E0602843136B556B43EA45032C
:402700001B0503F440130343906B43EA8000052E03D1D3681B029BB202E053681B029BB20343081D800123501368062B08D104EB81130120C3F808013F20C3F828011DE002
:40274000936843B904EB81130020C3F808013120C3F8280112E0012B08D1506904EB8113C3F808011C20C3F8280107E004EB81130120C3F808011220C3F82801106A04EBE1
:402780008113C3F80C01506AC3F810015069C3F814019069C3F81801136EB3F1FF3F17D0106C00F00F00966C360206F470663043156D2D0405F470250543906D000380B2E4
:4027C00028431B01DBB2034304EB8110C0F82031D36B03F00303566C360106F030063343D56C2D0205F440752B43506D8001C0B21843D36D9B0003F00C03034304EB8114E6
:40280000C4F82431D36AC4F83831002002E002487047014870BC70470100B600014B1860704700BFC80E0308F0B51B4C85B02668F76C3D18306DBC1841180191C718337EB1
:4028400002A9013B9BB2EA1A0A801A198A80019A0800D21ADB194A80CB8004F003FA002818D022000199280002F0A2FD22003900280002F09DFD019B7A1E5E1C3100280035
:4028800002F0BCFD7A1E3100200002F0B7FD04F039F9E4E705B0F0BDC0420208064B5A68596B01325A60C2008A18596A51600021117058627047C046CC0E03080F2330B5CE
:4028C00042680E4CD90009190D6C2100AA4202D2013BF7D211E00F2B0FD82468A21A0A608268C068002A00D05060002801D0026003E00833DB00CB185A6030BDCC0E030837
:40290000F8B5284C0600E368A26B013B0818D3180D00984206D80368002B03D14368F618FFF7CCFFA36B9D420BD92B1F1F68EF1B3B68002B05D17B683800F6183D00FFF77C
:40294000BDFF0F23DA00A218126C964202D2013BF8D225E00F2B23D80833DA00A21850680022A91904392A606E60A8602D610E6029000831904200D04160EA602200DB007B
:40298000E318A860596023682932F31823601278002A05D1E268D31AA268934200D9A3603000F8BDCC0E0308F0B5234B87B09C6BDB680490013BE318039323686568002B29
:4029C00030D1039B6719BB422CD93B680293002B28D0194EDB00726B9B5C012B22D17B6820000193F36A0593FFF768FF3B68726BDB00D3185C60019A3900200008F055FBFF
:402A0000029B059A934202D1736B5B1B7363019B2800E118FFF774FF049B002B01D0984206D2019D039B6419A342C6D8012000E0002007B0F0BDC046CC0E0308002806D06B
:402A4000034BDA6B0260002A00D05060D8637047CC0E0308034BC0005B6B1818406808307047C046CC0E0308064A10B5D3690133D361526BC300D3181A7801321A70FFF7F1
:402A8000E9FF10BDCC0E0308036810B5083B094C1B68626BDB00D3181A78012A04D9E169002901D00139E161013A1A7000230360180010BDCC0E03080322024B9143186071
:402AC0005960704764CC020810B5041E0BD0064B5A6BC300D3185B6819005868FFF710FF2000FFF7DBFE10BDCC0E0308F7B5224DEB6A002B07D1214B99685868083108F093
:402B00009FFA841C03E02B691C1DDB08E418E00000F000F90126071E2CD06A6BC300D3185E68EB6A083601932B69696BDA00144B30001B68984729696E630B00CA000432AB
:402B4000EF62B218601E834203D2013313600832F9E7DB00F31800265E60074B5A685962511A091959601C61019BB34202D01800FFF7AAFF3000FEBDCC0E030864CC0208E1
:402B8000F442020870B5184C230028331A78002A29D101321A70154B0F32DA609A68002A02D15A6892089A605A2210252262002228009040D100611801320864102AF7D1F1
:402BC0005868196803000125143BCB180E3A22616363A163E0605D6065626560FFF790FEFFF784FF256370BDCC0E030864CC0208F0B5040085B0FFF7C5FF0323294E0334DE
:402C00009C43376C201DB84200D30700F26B1400002C06D0231F196823688F4232D01C00F6E7F268B36B944663440193043B02931B680393039A019B9D1A2B68002B06D076
:402C40002000FFF7B1FE029B1D68019B5D1B2B68002B23D16B689F4220DC28001C1DFFF72DFEF368E41BDB1BF36073692C19DB1973616B68D81B02D02900FFF741FE231FB1
:402C80001F600BE0002B01D0616859606168002900D00B60A24201D12368F363200005B0F0BDC046CC0E030810B5FFF76BFF00230C4A1900BC315058002802D083680020AA
:402CC0000CE0083B19008031F3D109E05A68824200D910009B68002B02D09B68002BF5D10C3810BDCC0E030810B5FFF7DDFF8023074CDB03984205D9642108F0B3F9236AFC
:402D0000584304E0236A6421584308F099F910BDCC0E0308F0B585B00400FFF733FF3C4D2E6CB44203D3032303349C4326002B680C360196B34241D32B6B6A689A420FD933
:402D40006B686F6A013B6B60FB0003936B6BFA009B185A686A6201221A70002F0AD12DE0013B2B63FFF7C2FE2B6B01332B630028E6D023E00F23DA00AA18126C964201D28A
:402D8000013BF8D21A00DB004433EB180F2A0DD81968002907D08C68002C04D061688E420ED9A168F5E701320833EFE73000FFF7FBFD0028DED03800FFF770FD002723E0A9
:402DC000636802939E1B2B6C0C339E4201D2029B01932000FFF772FD6B6B039A9B185C60019B019A63600023A360019B2760E1180B1F24611A601300029A934204DA1300BF
:402E0000019A981AFFF77CFD380005B0F0BDC046CC0E0308002310B5984202D0FFF77AFF0300180010BD000037B50500FFF7F2FF041E0AD0FFF718FE054B01901B682A00F8
:402E40000021984701A8FFF71FFE20003EBDC046F8420208514BF0B51B688FB0DA69D469A589A84208DBE189814205D32168451B09910121494215E0A168002900D184E022
:402E80000D88A84200DA80E04E8886427DD3451B4968A8B266688000081809960021455E0221415E0891691C6FD022215E5E2420195E0691127E0A92A27C0A9951430C91A1
:402EC000227C0B922A229B5E1800079302F03AFA324F0D903A680699D369926B300005920C9A5543099A551904950125A27C02950392DA7E01929B7E0B9A00930A9B02F0F0
:402F0000B3FB089B01331BD00220079B184302F019FA3B680899DA699B6B300005930C9B4B430999CB180493A37C02950393D37E06990193937E0B9A00930A9B02F094FB18
:402F4000164D2B68DB695A7E1B7E9A4217D9079B022B14D00420584002F0F4F92B68069AD8690B99437E057E9B18827E51438A19C17E069869430918300002F065FA6B466A
:402F800034229B18187802F0DDF9044B617C1A68538CCB1853840FB0F0BDC046C0420208044B1B68DB69DB69002901D01A7C0A60587C7047C042020802230B80704710B5D4
:402FC000C3699A89914203DBDA8901208A4210D29B68181E0DD01A880020914209D35C888C4206D3891A5B688900C85AC04380B2C00B10BD002807D003888B4202D84388B3
:403000008B4201D28068F5E770470000F0B5334F8BB03B6804002A215A5EDB690100D8690792FFF7E7FF002855D00388E41A4368E4001E190798B47802F084F9396809905E
:40304000CD6932782B7E08932423C85E84462223C85E896B089B059171680394049101210291E97E0191A97E0091614602F0FCFA3B68DB695C7E1A7E089294421FD9079A01
:40308000022A1CD0DD7E00F082F8079000F079F800F050F93A682423D15E2223D05E2300D2696B43D47E32785B186243089C12186543691802F0C8F9079800F03BF9099849
:4030C00002F040F9054B71781B68DA69927E4A43598C52185A840BB0F0BDC046C04202080C4B70B51B680400DE690D000100F069FFF780FF00280CD002884368A41AE40061
:403100001C196078B37E5843002D02D0227853432B6070BDC042020801230B80704710B5C069FFF767FF431E9841C0B210BDFF2230B5040014400A40A21A92B213B2002B02
:4031400001DA524213B25B431D00FF23020A1A4014000A0A1340E21A92B213B2002B01DA524213B2000C5B43090C411A89B208B25B19002801DA494208B280B24043C018A1
:4031800030BD10B502F0D8FC02F0DEFB10BD10B502F0DAFC02F0D8FB10BD0000044B00229B5E0360034B00229B5E0B607047C046B40F0308A40F030870B500282CD0002984
:4031C00026D0002A25D013880D881C1C2EB21BB2B34200DD2C1C048053884D881C1C2EB21BB2B34200DD2C1C448093888D881C1C2EB21BB2B34200DA2C1C8480D388C988B8
:403200001A1C0CB21BB2A34200DA0A1CC28003E01100082207F03EFF70BD00280DD0038889B2CB180380838892B2C91843888180D3184380C388D218C28070470E4B10B500
:403240001B681C1E03D098470400601E844103F073FE002800D00124084B1B68002B03D09847002800D00124054B1B68002B00D09847200010BDC046B00F0308D80F0308EB
:40328000D00F030810B50024FFF7D8FF002801D00124F9E7200010BD024B1B685884998400207047C0420208024B1B681A7E187610007047C042020830B503000222845E20
:4032C00006200A5E0020944213DC02228C5E06255A5F94420DDC00229C5E04254A5F944207DC00228A5E0421595ED00FCB179142584130BD10B5034B7022196807F0CAFE1E
:4033000010BDC046C042020810B5034B01007022186807F0BFFE10BDC042020810B502F01DFD02F083FD03F047FE10BD10B502F04FFB10BD10B502F053FB10BD10B502F05C
:4033400001F810BD034B021E1B68D86900D0DA617047C046C0420208024B1B689A7E987610007047C0420208084B10B51880084B0A001980074B08491B685B7C9B005B58C7
:40338000D9680C6A01001800A04710BDB40F0308A40F0308C0420208DC0F0308034B1B682C215A5E988510007047C046C0420208034B1B682A215A5E588510007047C046B1
:4033C000C04202080E4B10B5186802F001FB0D4B186802F005FB0120FFF766FF0020FFF7DDFF0020FFF7E4FF0020FFF7A7FF064B1868FFF7A7FF0020FFF7AEFF10BDC04645
:40340000E8CC0208C8420208CC42020870B50024094D0A4E10C53368210028007022984733680422210006489847064B1D60064B1C70064B1C6070BD74CC0208F84202083F
:40344000DC0F0308C0420208C40F0308A00F0308014BD8607047C046C0420208F0B50700160085B00C000420019301F06BFF114B00901A68D36CDD199E19176D019B3C1980
:40348000FF1802AB18001D809E805C80DF8003F0E9FB002804D1009801F054FF05B0F0BD3B0032002100280001F0CEFF03F02AFBEFE7C046C0420208002110B50800FFF7D0
:4034C000EBFE034A034813000100FFF7C7FF10BDFF3F000001C0FFFF024BDA6FD86742607047C04674CC0208084B10B51A68002A0AD101321A60FDF739FFFDF793FB0448ED
:40350000044B0360FFF7E8FF10BDC04674CC0208F4CC02080D34081070B5FFF7E5FF2E22314B1A70FDF71EFF304C314D2100314B0C3123672B681A1DDA630432A2619B63BA
:403540001B645B7C2C4A9B009858C3681B6B98472A4B6366EB6823622B680833A36101232377E37703F0B6FE2300032268331A70234BE064606F6363A36302F029FAA868DE
:4035800002F02EFA1F4A204B1A6002F083F9050002F082FB060002F085FB002E01D0002808D102F063FB060002F065FB0100300002F06CFB00210800FFF7D6FE03F056FDDE
:4035C000A36F002B0AD0A36F002B07D01B68002B00D09847A36F5B68A367F4E701220B4B28001A7070BDC046950F030874CC0208C042020828420910DC0F03082042091032
:40360000785634FF80420910D40F0308BC0F03080300002083420ADC054A9B009858002805D0C3681B68002B01D00068F7E77047DC0F030810B5FFF701FA10BDF8B5060072
:403640000D0017001C1E01DD00201BE01C20FFF7CFFA0028F8D0002D01D005610BE00A4BA200D358002B06D01A68002A01D01300FAE71B690361002384618782C6600360A3
:4036800043608360F8BDC046DC0F030883690C499A0010B554580368A04204D15350002B01D000225A604268002A00D013600368002B00D05A6000230360436010BDC046B7
:4036C000DC0F030830B5002801D101203BE08269002AFADC1C4B19788A4201DB012119701A49920053580D00002B02D15050180029E05968002901D00B00FAE7C1680968D6
:40370000DC6824688C4203DD1B68002BF8D1DCE78C420AD1848A012C07D11C68002C04D02300E4682468A142F7DD5968002902D00860416000E0A85058600022984200D0BE
:403740001A000260002030BD8D0F0308DC0F030870B51C00FFF772FF051E0AD0FFF7B2FFEB681B68002B04D1034B16341B68A400E550280070BDC046C0420208F0B50400FD
:4037800087B0002800D17BE004F03CFB3D4D02902B6822229B5E039304F01EFB2A6883B20093938C00995B1A93842378002B5AD03549200004F092FB01000600200004F0FC
:4037C000B7FB304B1A680323918D19400300012905D00023022902D1C30F1B185B10518C04ADCB1A9BB219B25184298081B2019101395B18AB802423D35E6A4617896B8091
:40380000013BFB182A0020003100EB8004F0BEFB1C4D04AB5B882A6820009384310000F017FC241823780A2B01D00D2B12D103212B689A8D0A40013A012A02D86A46928983
:4038400000E01A8C5A8422780A2A09D19A8CBF189F8405E004AA1088019A2B68101858842378002B0AD10321064B009A1B68988C10189A8D98848A439A8501E0013494E780
:4038800007B0F0BDC0420208FF7F000010B5034B1B6859849A84FFF771FF10BDC042020810B5084B1B681A7E012A03D11B6E5B68984705E0013AD30F9A18521004F0B4FB34
:4038C00010BDC046C0420208F7B50E4C2568EE6C3418286DB618C7186B46451868461C809E805D80DF8003F0BDF9002808D03B0032002900200001F0A7FD03F003F9F4E7FE
:40390000F7BDC046C042020810B51F4A030012680020927E013A032A35D8100007F07CFB020F1D25194A0633134004D51022013B524213430133D80F00210B220AE0144ACF
:40394000134004D50422013B52421343013300210122D80F9A42484115E01421180007F08FFB01200B2909DC0DE01821180007F087FB01200B2906DD0423994300231039B0
:4039800088425B41180010BDC04202080F000080030000808023000530B5000D1B010021984202DD104A013180188022D200904200DD181A3F23402482111840201A0B4D52
:4039C00083B25000405B5843A34207D0102A05D001325200525BE31A5343C01820308009002900D0404230BD00F8FFFF3C420910802310B5DB00C018FFF7CCFF10BD00002D
:403A0000F0B587B002910299141A5F1A210001900C9D394303D10299FFF742FFBFE0F917E61778184840A11971400026049688420BDD21003C000F0011001A000B0001997B
:403A400002980291012101900491E0172118414001200390A14208D00293019B01921A0001235B4264427F4203932E68002F3FD14C4B04991B6800291BD09B7E3700002BFA
:403A800013D10199029801F0B9FC88E03800FFF73BFF002808D1019B0298991B414BC9191B681B6E5B6898470137BB1BA342EDDD1BE0997E3700002914D11B6E02991B68B6
:403AC000019898476BE03800FFF71EFF002808D1019B0299981B334BC0191B681B6E5B6898470137BB1B9C42EDDA013F2F6056E0E30F1B195B10002F00DA5B42294A1268EC
:403B0000927E002A19D11D00019E019BF31A9C4245DB2100280007F0A5FA029B049AC018204B31001B681B6E5B68002A01D10100300098470136ED19E7E7039A013201D1E8
:403B4000A6192E60019E0593019B2868F31A9C421CDB039B18182860FFF7D6FE002810D12100059807F07EFA029B049AC0180D4B31001B681B6E5B68002A01D101003000C5
:403B80009847059B0136DB190593DDE7039B013301D104192C602B68039A9B1A2B6007B0F0BDC046C0420208F0B58BB00593634B03901B6804921E7E0F00012E05D1109B9F
:403BC0000093059BFFF71CFFB5E0039B049A991A059BF81A0B00034300D1ACE00024013EA14201DA49420134002802DA022340421C43814204DA04231C430B000100180067
